:10000000D5C0E9C1ECC0EBC0EAC0E9C0E8C0E7C0B8
:10001000E6C0E5C0E4C0E3C0E2C0E1C0E0C0DFC0CC
:10002000DEC0DDC0DCC0018899B9A9038495B5A5FF
:10003000048293B3A3058191B1A1068192B2A20774
:100040008C9CBCAC098A9ABAAA0A8798B8A80B8576
:1000500096B6A60C8394B4A40D090900000E5EB0F8
:100060000000157151110016312100001A7959193B
:10007000001B735313001C614101001D77571700CB
:100080001E322200001FB0B0B0B021634303002233
:10009000785818002364440400246545050025347D
:1000A0002400002633A7000029202020202A76568D
:1000B00016002B664606002C745414002D72521242
:1000C000002E352500002FAFAFAFAF316E4E0E00C2
:1000D000326242020033684808003467470700353F
:1000E0007A5A1A0036362600003A6D4D0D003B6AEA
:1000F0004A0A003C755515003D372F00003E382850
:100100000000412C3B0000426B4B0B004369490946
:1001100000446F4F0F0045303D0000463929000074
:10012000492E3A00004A2D5F00004B6C4C0C004CED
:10013000F6D600004D705010004EDF3F005C52E4D8
:10014000C4000054FCDC000055B460000058FFFF00
:10015000FFFF5A0D0D0D0D5B2B2A007E5D2327003E
:1001600000613C3E007C6608AE8F0069C7CFCF00BF
:100170006BC2CACA006CC6CECE0070BDAD8D007118
:10018000BEAE8E0072C1C9C90074C3CBCB0075C0AE
:10019000C8C800761B1BA000788B9BBBAB7AC5CD73
:1001A000CD007DC4CCCC00838697B7A711241FBE99
:1001B000CFEDCDBF10E0A0E6B0E0E8E4F5E002C08E
:1001C00005900D92A236B107D9F720E0A2E6B0E083
:1001D00001C01D92A737B207E1F78FD1B3C110CF8D
:1001E00047E090E09C01042E02C0359527950A94C3
:1001F000E2F720FF02C0D99A01C0D998EFE0F7E2F8
:100200003197F1F700C00000D89AEFE0F7E231979C
:10021000F1F700C00000D898415020F7089598E009
:10022000915039F020917600280F20937600869522
:10023000F7CF8091760091E089278093760008952A
:10024000E0916C00F0916D00808380916C00909142
:100250006D00019690936D0080936C002091730067
:10026000309174008217930731F483E690E0909305
:100270006D0080936C0040916F00509170008091F0
:100280006C0090916D008417950771F4019690931E
:10029000700080936F008217930731F483E690E03B
:1002A0009093700080936F00089520916F003091BB
:1002B000700080917300909174002817390731F411
:1002C00083E690E09093700080936F00E0916F0060
:1002D000F091700080916C0090916D00E817F90723
:1002E00041F0CF0101969093700080936F00808160
:1002F000089580E008959091620093FD2AC0803FA8
:1003000021F48091620088603CC0823111F089350F
:1003100021F480916200816034C0883529F4809195
:10032000620090E289272DC0843121F4809162001F
:10033000826027C0813121F480916200846021C0F5
:10034000803E09F1609162009BD08823E1F078DF64
:10035000089590916200977F90936200823111F02E
:10036000893521F4809162008E7F0BC0843121F4A5
:10037000809162008D7F05C0813129F480916200F7
:100380008B7F80936200089581B3807F81BB82B3AD
:100390008C6082BB10926B008BE080936E0085B7FF
:1003A0008C7F85BF85B7826085BF80B5846080BD46
:1003B00080E48BBF83E690E09093700080936F00A1
:1003C00090936D0080936C008BE690E090937400A6
:1003D0008093730008951F920F920FB60F9211240D
:1003E0002F933F934F935F936F937F938F939F933D
:1003F000AF93BF93EF93FF9380916B0081111AC06D
:1004000080916E008B3080F480916E00833060F0BC
:1004100080917100869580937100839B05C08091C7
:10042000710080688093710081E080936B0085B7D4
:10043000836014C080916E00815080936E008111A2
:1004400006C08091710057DF8BE080936E001092A0
:100450006B0085B78C7F85BF85B7826085BFFF91B4
:10046000EF91BF91AF919F918F917F916F915F912C
:100470004F913F912F910F900FBE0F901F901895A5
:10048000CF93C82FA62F409160004150B0E0242F99
:1004900030E02B0F311D35952795C90165E070E0DF
:1004A00040D0FC01EA5DFF4FE491EC1304C08A2FB9
:1004B000817291F40BC0EC1718F4B1E0B20F02C0D6
:1004C0004FEF420F4B1718F780E015C0A1FD06C093
:1004D000A2FF06C044E005C042E003C043E001C003
:1004E00041E0C90165E070E01CD0840F911D8A5D78
:1004F0009F4FFC018491CF91089546DF8FEF87BB1A
:1005000018BA83E08ABB1BBA7894CFDE882339F00F
:1005100088BB8FE19EE40197F1F700C0000018BA94
:10052000F4CF0024552704C0080E591F880F991FC7
:10053000009729F076956795B8F37105B9F7802D86
:08054000952F0895F894FFCFF8
:020548004C0065
:00000001FF
