:100000009AC085C1B1C0B0C0AFC0AEC0ADC0ACC0B9
:10001000ABC0AAC0A9C0A8C0A7C0A6C0A5C0A4C0A4
:10002000A3C0A2C0A1C00D090E7E155116211A5AF7
:100030001B531C411D571E40214322582344244575
:100040002524262329202A562B462C542D522E2592
:10005000314E3242334834473559365E394C3A4D89
:100060003B4A3C553D2F3E2A413C424B4349444F7D
:1000700045294628493E4A3F4B4C4C3A4D504E5F2D
:100080005222547B552B5A0D5B7D5D7C613E660888
:1000900069316B346C377030712E7232733574364F
:1000A0007538792B7A337B2D7C2A7D3900000D0938
:1000B0000E60157116311A7A1B731C611D771E3282
:1000C00021632278236424652534263329202A7667
:1000D0002B662C742D722E35316E32623368346784
:1000E00035793636392C3A6D3B6A3C753D373E38AA
:1000F000412C426B4369446F45304639492E4A2FA3
:100100004B6C4C3B4D704E2D5227545B553D5A0D58
:100110005B5D5D5C613C660869316B346C377030E7
:10012000712E7232733574367538792B7A337B2D94
:100130007C2A7D39000011241FBECFEDCDBF10E019
:10014000A0E6B0E0E6E9F4E002C005900D92AC371D
:10015000B107D9F720E0ACE7B0E001C01D92AE399D
:10016000B207E1F750D195C14BCFCF93DF93982FD2
:1001700092959F70D0E3D90FDA3310F0D7E3D90FFF
:100180008F70C0E3C80FCA3310F0C7E3C80F80E315
:1001900090E047D188E790E044D18D2F90E041D1A5
:1001A0008C2F90E03ED1DF91CF91089582E890E0CE
:1001B0009093930080939200909395008093940085
:1001C0001092810082E085BF80E48BBF08959091FA
:1001D00081009031F0F4E0919200F09193009F0142
:1001E0002F5F3F4F30939300209392008083809144
:1001F00081008F5F809381008091920090919300A5
:100200008259904030F082E890E090939300809380
:100210009200089590917E00911160C0803F21F47A
:1002200081E080937E000895823111F0893521F4B8
:1002300081E080937D00089590917C00853071F479
:10024000911103C081E080937C0080917C0082301A
:1002500009F05CC083E080937C000895992319F035
:10026000933009F036C090917D00992311F090E011
:100270001BC090E0292F30E0F901EE0FFF1FE2557F
:10028000FF4FE491220F331FE81304C0F901E15539
:10029000FF4F19C0EE2311F09F5FECCF811136C0E4
:1002A000F5CFEE2399F09F5F292F30E0F901EE0F93
:1002B000FF1FEA5DFF4FE491220F331FE813F1CFD8
:1002C000F901E95DFF4F849182DF089581111EC01D
:1002D000F7CF4BDF80E27BDF80E2F6CF10927E002B
:1002E000823111F0893519F410927D00089585301E
:1002F00069F480917C00813019F482E080937C0065
:1003000080917C00833011F410927C0008951F923C
:100310000F920FB60F9211242F933F934F935F9339
:100320006F937F938F939F93AF93BF93EF93FF93BD
:10033000909160008DEF890F883050F480917F009C
:10034000869580937F00839B03C0806880937F00A5
:100350008FEF890F19F08093600006C08BE08093C7
:10036000600080917F0056DFFF91EF91BF91AF91C8
:100370009F918F917F916F915F914F913F912F91BD
:100380000F900FBE0F901F901895809181008823C9
:10039000E1F34FB7F894E0919400F09195009F013C
:1003A0002F5F3F4F3093950020939400808190E021
:1003B0002259304030F022E830E03093950020930D
:1003C0009400209181002150209381004FBF089517
:1003D000BE9A87B3836087BBBC98C59AC09AC19AFE
:1003E00080E48EB988E18DB91092970081E0809306
:1003F000960008958FB980E48EB9769BFECF8FB1B9
:10040000809380000895D2DEE3DF7894C1E6D0E0E7
:10041000B499FECF8991EEDF80E0CB37D807C1F7E2
:10042000FFCF60919A0070919B0001D008950F93C7
:100430001F93CF93DF93182F092FEB018B8181FD41
:1004400003C08FEF9FEF20C082FF10C04E815F81FD
:100450002C813D81421753077CF4E881F9819F018B
:100460002F5F3F4F39832883108306C0E885F985C5
:10047000812F0995892B29F72E813F812F5F3F4FCF
:100480003F832E83812F902FDF91CF911F910F916A
:060490000895F894FFCF6F
:100496000B6162636465666768696A6B6C6D6E6F33
:0C04A600707172737475767778797A0043
:00000001FF
